{
  "contractName": "SwapERC20ToBitcoin",
  "abi": [
    {
      "anonymous": false,
      "inputs": [
        {
          "indexed": false,
          "internalType": "bytes32",
          "name": "_swapID",
          "type": "bytes32"
        },
        {
          "indexed": false,
          "internalType": "bytes",
          "name": "_secretKey",
          "type": "bytes"
        }
      ],
      "name": "Close",
      "type": "event"
    },
    {
      "anonymous": false,
      "inputs": [
        {
          "indexed": false,
          "internalType": "bytes32",
          "name": "_swapID",
          "type": "bytes32"
        }
      ],
      "name": "Expire",
      "type": "event"
    },
    {
      "anonymous": false,
      "inputs": [
        {
          "indexed": false,
          "internalType": "bytes32",
          "name": "_swapID",
          "type": "bytes32"
        },
        {
          "indexed": false,
          "internalType": "address",
          "name": "_withdrawTrader",
          "type": "address"
        },
        {
          "indexed": false,
          "internalType": "bytes32",
          "name": "_secretLock",
          "type": "bytes32"
        }
      ],
      "name": "Open",
      "type": "event"
    },
    {
      "inputs": [
        {
          "internalType": "bytes32",
          "name": "_swapID",
          "type": "bytes32"
        },
        {
          "internalType": "uint256",
          "name": "_erc20Value",
          "type": "uint256"
        },
        {
          "internalType": "address",
          "name": "_erc20ContractAddress",
          "type": "address"
        },
        {
          "internalType": "address",
          "name": "_withdrawTrader",
          "type": "address"
        },
        {
          "internalType": "bytes32",
          "name": "_secretLock",
          "type": "bytes32"
        },
        {
          "internalType": "uint256",
          "name": "_timelock",
          "type": "uint256"
        }
      ],
      "name": "open",
      "outputs": [],
      "stateMutability": "nonpayable",
      "type": "function"
    },
    {
      "inputs": [
        {
          "internalType": "bytes32",
          "name": "_swapID",
          "type": "bytes32"
        },
        {
          "internalType": "bytes",
          "name": "_secretKey",
          "type": "bytes"
        }
      ],
      "name": "close",
      "outputs": [],
      "stateMutability": "nonpayable",
      "type": "function"
    },
    {
      "inputs": [
        {
          "internalType": "bytes32",
          "name": "_swapID",
          "type": "bytes32"
        }
      ],
      "name": "expire",
      "outputs": [],
      "stateMutability": "nonpayable",
      "type": "function"
    },
    {
      "inputs": [
        {
          "internalType": "bytes32",
          "name": "_swapID",
          "type": "bytes32"
        }
      ],
      "name": "check",
      "outputs": [
        {
          "internalType": "uint256",
          "name": "timelock",
          "type": "uint256"
        },
        {
          "internalType": "uint256",
          "name": "erc20Value",
          "type": "uint256"
        },
        {
          "internalType": "address",
          "name": "erc20ContractAddress",
          "type": "address"
        },
        {
          "internalType": "address",
          "name": "withdrawTrader",
          "type": "address"
        },
        {
          "internalType": "bytes32",
          "name": "secretLock",
          "type": "bytes32"
        }
      ],
      "stateMutability": "view",
      "type": "function",
      "constant": true
    },
    {
      "inputs": [
        {
          "internalType": "bytes32",
          "name": "_swapID",
          "type": "bytes32"
        }
      ],
      "name": "checkSecretKey",
      "outputs": [
        {
          "internalType": "bytes",
          "name": "secretKey",
          "type": "bytes"
        }
      ],
      "stateMutability": "view",
      "type": "function",
      "constant": true
    }
  ],
  "bytecode": "0x608060405234801561001057600080fd5b50611a7e806100206000396000f3fe608060405234801561001057600080fd5b50600436106100575760003560e01c80631a26720c1461005c578063399e0792146100785780635d44011e146100ac578063c6441798146100c8578063f200e404146100e4575b600080fd5b61007660048036038101906100719190611229565b610114565b005b610092600480360381019061008d9190611285565b6104e4565b6040516100a395949392919061131b565b60405180910390f35b6100c660048036038101906100c191906113c6565b6106eb565b005b6100e260048036038101906100dd9190611285565b610b0a565b005b6100fe60048036038101906100f99190611285565b610e64565b60405161010b91906114d2565b60405180910390f35b8160016003811115610129576101286114f4565b5b6001600083815260200190815260200160002060009054906101000a900460ff16600381111561015c5761015b6114f4565b5b1461016657600080fd5b8282600281604051610178919061155f565b602060405180830381855afa158015610195573d6000803e3d6000fd5b5050506040513d601f19601f820116820180604052508101906101b8919061158b565b60008084815260200190815260200160002060050154146101d857600080fd5b60008060008781526020019081526020016000206040518060e001604052908160008201548152602001600182015481526020016002820160009054906101000a900473ffffffffffffffffffffffffffffffffffffffff1673ffffffffffffffffffffffffffffffffffffffff1673ffffffffffffffffffffffffffffffffffffffff1681526020016003820160009054906101000a900473ffffffffffffffffffffffffffffffffffffffff1673ffffffffffffffffffffffffffffffffffffffff1673ffffffffffffffffffffffffffffffffffffffff1681526020016004820160009054906101000a900473ffffffffffffffffffffffffffffffffffffffff1673ffffffffffffffffffffffffffffffffffffffff1673ffffffffffffffffffffffffffffffffffffffff16815260200160058201548152602001600682018054610327906115e7565b80601f0160208091040260200160405190810160405280929190818152602001828054610353906115e7565b80156103a05780601f10610375576101008083540402835291602001916103a0565b820191906000526020600020905b81548152906001019060200180831161038357829003601f168201915b50505050508152505090508460008088815260200190815260200160002060060190816103cd91906117c4565b5060026001600088815260200190815260200160002060006101000a81548160ff02191690836003811115610405576104046114f4565b5b02179055506000816060015190508073ffffffffffffffffffffffffffffffffffffffff1663a9059cbb836080015184602001516040518363ffffffff1660e01b8152600401610456929190611896565b6020604051808303816000875af1158015610475573d6000803e3d6000fd5b505050506040513d601f19601f8201168201806040525081019061049991906118f7565b6104a257600080fd5b7f692fd10a275135b9a2a2f5819db3d9965a5129ea2ad3640a0156dbce2fc81bdd87876040516104d3929190611924565b60405180910390a150505050505050565b6000806000806000806000808881526020019081526020016000206040518060e001604052908160008201548152602001600182015481526020016002820160009054906101000a900473ffffffffffffffffffffffffffffffffffffffff1673ffffffffffffffffffffffffffffffffffffffff1673ffffffffffffffffffffffffffffffffffffffff1681526020016003820160009054906101000a900473ffffffffffffffffffffffffffffffffffffffff1673ffffffffffffffffffffffffffffffffffffffff1673ffffffffffffffffffffffffffffffffffffffff1681526020016004820160009054906101000a900473ffffffffffffffffffffffffffffffffffffffff1673ffffffffffffffffffffffffffffffffffffffff1673ffffffffffffffffffffffffffffffffffffffff1681526020016005820154815260200160068201805461063a906115e7565b80601f0160208091040260200160405190810160405280929190818152602001828054610666906115e7565b80156106b35780601f10610688576101008083540402835291602001916106b3565b820191906000526020600020905b81548152906001019060200180831161069657829003601f168201915b505050505081525050905080600001518160200151826060015183608001518460a00151955095509550955095505091939590929450565b8560006003811115610700576106ff6114f4565b5b6001600083815260200190815260200160002060009054906101000a900460ff166003811115610733576107326114f4565b5b1461073d57600080fd5b60006003811115610751576107506114f4565b5b6001600089815260200190815260200160002060009054906101000a900460ff166003811115610784576107836114f4565b5b1461078e57600080fd5b60008590508073ffffffffffffffffffffffffffffffffffffffff1663dd62ed3e33306040518363ffffffff1660e01b81526004016107ce929190611954565b602060405180830381865afa1580156107eb573d6000803e3d6000fd5b505050506040513d601f19601f8201168201806040525081019061080f9190611992565b87111561081b57600080fd5b8073ffffffffffffffffffffffffffffffffffffffff166323b872dd33308a6040518463ffffffff1660e01b8152600401610858939291906119bf565b6020604051808303816000875af1158015610877573d6000803e3d6000fd5b505050506040513d601f19601f8201168201806040525081019061089b91906118f7565b6108a457600080fd5b60006040518060e001604052808581526020018981526020013373ffffffffffffffffffffffffffffffffffffffff1681526020018873ffffffffffffffffffffffffffffffffffffffff1681526020018773ffffffffffffffffffffffffffffffffffffffff168152602001868152602001600067ffffffffffffffff811115610932576109316110fe565b5b6040519080825280601f01601f1916602001820160405280156109645781602001600182028036833780820191505090505b508152509050806000808b8152602001908152602001600020600082015181600001556020820151816001015560408201518160020160006101000a81548173ffffffffffffffffffffffffffffffffffffffff021916908373ffffffffffffffffffffffffffffffffffffffff16021790555060608201518160030160006101000a81548173ffffffffffffffffffffffffffffffffffffffff021916908373ffffffffffffffffffffffffffffffffffffffff16021790555060808201518160040160006101000a81548173ffffffffffffffffffffffffffffffffffffffff021916908373ffffffffffffffffffffffffffffffffffffffff16021790555060a0820151816005015560c0820151816006019081610a8591906117c4565b5090505060018060008b815260200190815260200160002060006101000a81548160ff02191690836003811115610abf57610abe6114f4565b5b02179055507f6ed79a08bf5c8a7d4a330df315e4ac386627ecafbe5d2bfd6654237d967b24f3898787604051610af7939291906119f6565b60405180910390a1505050505050505050565b8060016003811115610b1f57610b1e6114f4565b5b6001600083815260200190815260200160002060009054906101000a900460ff166003811115610b5257610b516114f4565b5b14610b5c57600080fd5b8142600080838152602001908152602001600020600001541115610b7f57600080fd5b60008060008581526020019081526020016000206040518060e001604052908160008201548152602001600182015481526020016002820160009054906101000a900473ffffffffffffffffffffffffffffffffffffffff1673ffffffffffffffffffffffffffffffffffffffff1673ffffffffffffffffffffffffffffffffffffffff1681526020016003820160009054906101000a900473ffffffffffffffffffffffffffffffffffffffff1673ffffffffffffffffffffffffffffffffffffffff1673ffffffffffffffffffffffffffffffffffffffff1681526020016004820160009054906101000a900473ffffffffffffffffffffffffffffffffffffffff1673ffffffffffffffffffffffffffffffffffffffff1673ffffffffffffffffffffffffffffffffffffffff16815260200160058201548152602001600682018054610cce906115e7565b80601f0160208091040260200160405190810160405280929190818152602001828054610cfa906115e7565b8015610d475780601f10610d1c57610100808354040283529160200191610d47565b820191906000526020600020905b815481529060010190602001808311610d2a57829003601f168201915b505050505081525050905060036001600086815260200190815260200160002060006101000a81548160ff02191690836003811115610d8957610d886114f4565b5b02179055506000816060015190508073ffffffffffffffffffffffffffffffffffffffff1663a9059cbb836040015184602001516040518363ffffffff1660e01b8152600401610dda929190611896565b6020604051808303816000875af1158015610df9573d6000803e3d6000fd5b505050506040513d601f19601f82011682018060405250810190610e1d91906118f7565b610e2657600080fd5b7fbddd9b693ea862fad6ecf78fd51c065be26fda94d1f3cad3a7d691453a38a73585604051610e559190611a2d565b60405180910390a15050505050565b60608160026003811115610e7b57610e7a6114f4565b5b6001600083815260200190815260200160002060009054906101000a900460ff166003811115610eae57610ead6114f4565b5b14610eb857600080fd5b60008060008581526020019081526020016000206040518060e001604052908160008201548152602001600182015481526020016002820160009054906101000a900473ffffffffffffffffffffffffffffffffffffffff1673ffffffffffffffffffffffffffffffffffffffff1673ffffffffffffffffffffffffffffffffffffffff1681526020016003820160009054906101000a900473ffffffffffffffffffffffffffffffffffffffff1673ffffffffffffffffffffffffffffffffffffffff1673ffffffffffffffffffffffffffffffffffffffff1681526020016004820160009054906101000a900473ffffffffffffffffffffffffffffffffffffffff1673ffffffffffffffffffffffffffffffffffffffff1673ffffffffffffffffffffffffffffffffffffffff16815260200160058201548152602001600682018054611007906115e7565b80601f0160208091040260200160405190810160405280929190818152602001828054611033906115e7565b80156110805780601f1061105557610100808354040283529160200191611080565b820191906000526020600020905b81548152906001019060200180831161106357829003601f168201915b50505050508152505090508060c0015192505050919050565b6000604051905090565b600080fd5b600080fd5b6000819050919050565b6110c0816110ad565b81146110cb57600080fd5b50565b6000813590506110dd816110b7565b92915050565b600080fd5b600080fd5b6000601f19601f8301169050919050565b7f4e487b7100000000000000000000000000000000000000000000000000000000600052604160045260246000fd5b611136826110ed565b810181811067ffffffffffffffff82111715611155576111546110fe565b5b80604052505050565b6000611168611099565b9050611174828261112d565b919050565b600067ffffffffffffffff821115611194576111936110fe565b5b61119d826110ed565b9050602081019050919050565b82818337600083830152505050565b60006111cc6111c784611179565b61115e565b9050828152602081018484840111156111e8576111e76110e8565b5b6111f38482856111aa565b509392505050565b600082601f8301126112105761120f6110e3565b5b81356112208482602086016111b9565b91505092915050565b600080604083850312156112405761123f6110a3565b5b600061124e858286016110ce565b925050602083013567ffffffffffffffff81111561126f5761126e6110a8565b5b61127b858286016111fb565b9150509250929050565b60006020828403121561129b5761129a6110a3565b5b60006112a9848285016110ce565b91505092915050565b6000819050919050565b6112c5816112b2565b82525050565b600073ffffffffffffffffffffffffffffffffffffffff82169050919050565b60006112f6826112cb565b9050919050565b611306816112eb565b82525050565b611315816110ad565b82525050565b600060a08201905061133060008301886112bc565b61133d60208301876112bc565b61134a60408301866112fd565b61135760608301856112fd565b611364608083018461130c565b9695505050505050565b611377816112b2565b811461138257600080fd5b50565b6000813590506113948161136e565b92915050565b6113a3816112eb565b81146113ae57600080fd5b50565b6000813590506113c08161139a565b92915050565b60008060008060008060c087890312156113e3576113e26110a3565b5b60006113f189828a016110ce565b965050602061140289828a01611385565b955050604061141389828a016113b1565b945050606061142489828a016113b1565b935050608061143589828a016110ce565b92505060a061144689828a01611385565b9150509295509295509295565b600081519050919050565b600082825260208201905092915050565b60005b8381101561148d578082015181840152602081019050611472565b60008484015250505050565b60006114a482611453565b6114ae818561145e565b93506114be81856020860161146f565b6114c7816110ed565b840191505092915050565b600060208201905081810360008301526114ec8184611499565b905092915050565b7f4e487b7100000000000000000000000000000000000000000000000000000000600052602160045260246000fd5b600081905092915050565b600061153982611453565b6115438185611523565b935061155381856020860161146f565b80840191505092915050565b600061156b828461152e565b915081905092915050565b600081519050611585816110b7565b92915050565b6000602082840312156115a1576115a06110a3565b5b60006115af84828501611576565b91505092915050565b7f4e487b7100000000000000000000000000000000000000000000000000000000600052602260045260246000fd5b600060028204905060018216806115ff57607f821691505b602082108103611612576116116115b8565b5b50919050565b60008190508160005260206000209050919050565b60006020601f8301049050919050565b600082821b905092915050565b60006008830261167a7fffffffffffffffffffffffffffffffffffffffffffffffffffffffffffffffff8261163d565b611684868361163d565b95508019841693508086168417925050509392505050565b6000819050919050565b60006116c16116bc6116b7846112b2565b61169c565b6112b2565b9050919050565b6000819050919050565b6116db836116a6565b6116ef6116e7826116c8565b84845461164a565b825550505050565b600090565b6117046116f7565b61170f8184846116d2565b505050565b5b81811015611733576117286000826116fc565b600181019050611715565b5050565b601f8211156117785761174981611618565b6117528461162d565b81016020851015611761578190505b61177561176d8561162d565b830182611714565b50505b505050565b600082821c905092915050565b600061179b6000198460080261177d565b1980831691505092915050565b60006117b4838361178a565b9150826002028217905092915050565b6117cd82611453565b67ffffffffffffffff8111156117e6576117e56110fe565b5b6117f082546115e7565b6117fb828285611737565b600060209050601f83116001811461182e576000841561181c578287015190505b61182685826117a8565b86555061188e565b601f19841661183c86611618565b60005b828110156118645784890151825560018201915060208501945060208101905061183f565b86831015611881578489015161187d601f89168261178a565b8355505b6001600288020188555050505b505050505050565b60006040820190506118ab60008301856112fd565b6118b860208301846112bc565b9392505050565b60008115159050919050565b6118d4816118bf565b81146118df57600080fd5b50565b6000815190506118f1816118cb565b92915050565b60006020828403121561190d5761190c6110a3565b5b600061191b848285016118e2565b91505092915050565b6000604082019050611939600083018561130c565b818103602083015261194b8184611499565b90509392505050565b600060408201905061196960008301856112fd565b61197660208301846112fd565b9392505050565b60008151905061198c8161136e565b92915050565b6000602082840312156119a8576119a76110a3565b5b60006119b68482850161197d565b91505092915050565b60006060820190506119d460008301866112fd565b6119e160208301856112fd565b6119ee60408301846112bc565b949350505050565b6000606082019050611a0b600083018661130c565b611a1860208301856112fd565b611a25604083018461130c565b949350505050565b6000602082019050611a42600083018461130c565b9291505056fea2646970667358221220c26fe7cb9e45574748155063016c6861bb2ec00444887c675b4765f9fd1dc22464736f6c63430008120033",
  "immutableReferences": {},
  "source": "\npragma solidity ^0.8.18; \n\nimport \"./ERC20.sol\";\n\ncontract SwapERC20ToBitcoin {\n\n  struct Swap {\n    uint256 timelock;\n    uint256 erc20Value;\n    address erc20Trader;\n    address erc20ContractAddress;\n    address withdrawTrader;\n    bytes32 secretLock;\n    bytes secretKey;\n  }\n\n  enum States {\n    INVALID,\n    OPEN,\n    CLOSED,\n    EXPIRED\n  }\n\n  mapping (bytes32 => Swap) private swaps;\n  mapping (bytes32 => States) private swapStates;\n\n  event Open(bytes32 _swapID, address _withdrawTrader,bytes32 _secretLock);\n  event Expire(bytes32 _swapID);\n  event Close(bytes32 _swapID, bytes _secretKey);\n\n  modifier onlyInvalidSwaps(bytes32 _swapID) {\n    require (swapStates[_swapID] == States.INVALID);\n    _;\n  }\n\n  modifier onlyOpenSwaps(bytes32 _swapID) {\n    require (swapStates[_swapID] == States.OPEN);\n    _;\n  }\n\n  modifier onlyClosedSwaps(bytes32 _swapID) {\n    require (swapStates[_swapID] == States.CLOSED);\n    _;\n  }\n\n  modifier onlyExpirableSwaps(bytes32 _swapID) {\n    require (swaps[_swapID].timelock <= block.timestamp);\n    _;\n  }\n\n  modifier onlyWithSecretKey(bytes32 _swapID, bytes memory _secretKey) {\n    // TODO: Require _secretKey length to conform to the spec\n    require (swaps[_swapID].secretLock == sha256(_secretKey));\n    _;\n  }\n\n  function open(bytes32 _swapID, uint256 _erc20Value, address _erc20ContractAddress, address _withdrawTrader, bytes32 _secretLock, uint256 _timelock) public onlyInvalidSwaps(_swapID) {\n    require(swapStates[_swapID] == States.INVALID);\n    // Transfer value from the ERC20 trader to this contract.\n    ERC20 erc20Contract = ERC20(_erc20ContractAddress);\n    require(_erc20Value <= erc20Contract.allowance(msg.sender, address(this)));\n    require(erc20Contract.transferFrom(msg.sender, address(this), _erc20Value));\n\n    // Store the details of the swap.\n    Swap memory swap = Swap({\n      timelock: _timelock,\n      erc20Value: _erc20Value,\n      erc20Trader: msg.sender,\n      erc20ContractAddress: _erc20ContractAddress,\n      withdrawTrader: _withdrawTrader,\n      secretLock: _secretLock,\n      secretKey: new bytes(0)\n    });\n    swaps[_swapID] = swap;\n    swapStates[_swapID] = States.OPEN;\n    emit Open(_swapID, _withdrawTrader, _secretLock);\n  }\n\n  function close(bytes32  _swapID, bytes  memory _secretKey) public onlyOpenSwaps(_swapID) onlyWithSecretKey(_swapID, _secretKey) {\n    // Close the swap.\n    Swap memory swap = swaps[_swapID];\n    swaps[_swapID].secretKey = _secretKey;\n    swapStates[_swapID] = States.CLOSED;\n\n    // Transfer the ERC20 funds from this contract to the withdrawing trader.\n    ERC20 erc20Contract = ERC20(swap.erc20ContractAddress);\n    require(erc20Contract.transfer(swap.withdrawTrader, swap.erc20Value));\n\n    emit Close(_swapID, _secretKey);    \n  }\n\n  function expire(bytes32 _swapID) public onlyOpenSwaps(_swapID) onlyExpirableSwaps(_swapID) {\n    // Expire the swap.\n    Swap memory swap = swaps[_swapID];\n    swapStates[_swapID] = States.EXPIRED;\n\n    // Transfer the ERC20 value from this contract back to the ERC20 trader.\n    ERC20 erc20Contract = ERC20(swap.erc20ContractAddress);\n    require(erc20Contract.transfer(swap.erc20Trader, swap.erc20Value));\n\n    emit Expire(_swapID);\n  }\n\n  function check(bytes32 _swapID) public view returns (uint256 timelock, uint256 erc20Value, address erc20ContractAddress, address withdrawTrader, bytes32 secretLock) {\n    Swap memory swap = swaps[_swapID];\n    return (swap.timelock, swap.erc20Value, swap.erc20ContractAddress, swap.withdrawTrader, swap.secretLock);\n  }\n\n  function checkSecretKey(bytes32 _swapID) public view onlyClosedSwaps(_swapID) returns (bytes memory secretKey) {\n    Swap memory swap = swaps[_swapID];\n    return swap.secretKey;\n  }\n  \n}\n",
  "sourcePath": "/Users/wasim/29march2/SwapTokens/AtomicSwaps/contracts/SwapERC20ToBitcoin.sol",
  "compiler": {
    "name": "solc",
    "version": "0.8.18+commit.87f61d96.Emscripten.clang"
  },
  "schemaVersion": "3.4.13",
  "updatedAt": "2023-03-28T13:03:37.763Z",
  "networkType": "ethereum",
  "devdoc": {
    "kind": "dev",
    "methods": {},
    "version": 1
  },
  "userdoc": {
    "kind": "user",
    "methods": {},
    "version": 1
  }
}