{
  "contractName": "SwapEtherToBitcoin",
  "abi": [
    {
      "anonymous": false,
      "inputs": [
        {
          "indexed": false,
          "internalType": "bytes32",
          "name": "_swapID",
          "type": "bytes32"
        },
        {
          "indexed": false,
          "internalType": "bytes",
          "name": "_secretKey",
          "type": "bytes"
        }
      ],
      "name": "Close",
      "type": "event"
    },
    {
      "anonymous": false,
      "inputs": [
        {
          "indexed": false,
          "internalType": "bytes32",
          "name": "_swapID",
          "type": "bytes32"
        }
      ],
      "name": "Expire",
      "type": "event"
    },
    {
      "anonymous": false,
      "inputs": [
        {
          "indexed": false,
          "internalType": "bytes32",
          "name": "_swapID",
          "type": "bytes32"
        },
        {
          "indexed": false,
          "internalType": "address",
          "name": "_withdrawTrader",
          "type": "address"
        },
        {
          "indexed": false,
          "internalType": "bytes32",
          "name": "_secretLock",
          "type": "bytes32"
        }
      ],
      "name": "Open",
      "type": "event"
    },
    {
      "inputs": [
        {
          "internalType": "bytes32",
          "name": "_swapID",
          "type": "bytes32"
        },
        {
          "internalType": "address",
          "name": "_withdrawTrader",
          "type": "address"
        },
        {
          "internalType": "bytes32",
          "name": "_secretLock",
          "type": "bytes32"
        },
        {
          "internalType": "uint256",
          "name": "_timelock",
          "type": "uint256"
        }
      ],
      "name": "open",
      "outputs": [],
      "stateMutability": "payable",
      "type": "function",
      "payable": true
    },
    {
      "inputs": [
        {
          "internalType": "bytes32",
          "name": "_swapID",
          "type": "bytes32"
        },
        {
          "internalType": "bytes",
          "name": "_secretKey",
          "type": "bytes"
        }
      ],
      "name": "close",
      "outputs": [],
      "stateMutability": "nonpayable",
      "type": "function"
    },
    {
      "inputs": [
        {
          "internalType": "bytes32",
          "name": "_swapID",
          "type": "bytes32"
        }
      ],
      "name": "expire",
      "outputs": [],
      "stateMutability": "nonpayable",
      "type": "function"
    },
    {
      "inputs": [
        {
          "internalType": "bytes32",
          "name": "_swapID",
          "type": "bytes32"
        }
      ],
      "name": "check",
      "outputs": [
        {
          "internalType": "uint256",
          "name": "timelock",
          "type": "uint256"
        },
        {
          "internalType": "uint256",
          "name": "value",
          "type": "uint256"
        },
        {
          "internalType": "address",
          "name": "withdrawTrader",
          "type": "address"
        },
        {
          "internalType": "bytes32",
          "name": "secretLock",
          "type": "bytes32"
        }
      ],
      "stateMutability": "view",
      "type": "function",
      "constant": true
    },
    {
      "inputs": [
        {
          "internalType": "bytes32",
          "name": "_swapID",
          "type": "bytes32"
        }
      ],
      "name": "checkSecretKey",
      "outputs": [
        {
          "internalType": "bytes",
          "name": "secretKey",
          "type": "bytes"
        }
      ],
      "stateMutability": "view",
      "type": "function",
      "constant": true
    }
  ],
  "bytecode": "0x608060405234801561001057600080fd5b50611589806100206000396000f3fe60806040526004361061004a5760003560e01c80630eed85481461004f5780631a26720c1461006b578063399e079214610094578063c6441798146100d4578063f200e404146100fd575b600080fd5b61006960048036038101906100649190610de6565b61013a565b005b34801561007757600080fd5b50610092600480360381019061008d9190610f93565b61038c565b005b3480156100a057600080fd5b506100bb60048036038101906100b69190610fef565b6106c2565b6040516100cb9493929190611049565b60405180910390f35b3480156100e057600080fd5b506100fb60048036038101906100f69190610fef565b610869565b005b34801561010957600080fd5b50610124600480360381019061011f9190610fef565b610b29565b604051610131919061110d565b60405180910390f35b836000600381111561014f5761014e61112f565b5b6001600083815260200190815260200160002060009054906101000a900460ff1660038111156101825761018161112f565b5b1461018c57600080fd5b60006040518060c001604052808481526020013481526020013373ffffffffffffffffffffffffffffffffffffffff1681526020018673ffffffffffffffffffffffffffffffffffffffff168152602001858152602001600067ffffffffffffffff8111156101fe576101fd610e68565b5b6040519080825280601f01601f1916602001820160405280156102305781602001600182028036833780820191505090505b50815250905080600080888152602001908152602001600020600082015181600001556020820151816001015560408201518160020160006101000a81548173ffffffffffffffffffffffffffffffffffffffff021916908373ffffffffffffffffffffffffffffffffffffffff16021790555060608201518160030160006101000a81548173ffffffffffffffffffffffffffffffffffffffff021916908373ffffffffffffffffffffffffffffffffffffffff1602179055506080820151816004015560a082015181600501908161030a919061136a565b50905050600180600088815260200190815260200160002060006101000a81548160ff021916908360038111156103445761034361112f565b5b02179055507f6ed79a08bf5c8a7d4a330df315e4ac386627ecafbe5d2bfd6654237d967b24f386868660405161037c9392919061143c565b60405180910390a1505050505050565b81600160038111156103a1576103a061112f565b5b6001600083815260200190815260200160002060009054906101000a900460ff1660038111156103d4576103d361112f565b5b146103de57600080fd5b82826002816040516103f091906114af565b602060405180830381855afa15801561040d573d6000803e3d6000fd5b5050506040513d601f19601f8201168201806040525081019061043091906114db565b600080848152602001908152602001600020600401541461045057600080fd5b60008060008781526020019081526020016000206040518060c001604052908160008201548152602001600182015481526020016002820160009054906101000a900473ffffffffffffffffffffffffffffffffffffffff1673ffffffffffffffffffffffffffffffffffffffff1673ffffffffffffffffffffffffffffffffffffffff1681526020016003820160009054906101000a900473ffffffffffffffffffffffffffffffffffffffff1673ffffffffffffffffffffffffffffffffffffffff1673ffffffffffffffffffffffffffffffffffffffff168152602001600482015481526020016005820180546105499061118d565b80601f01602080910402602001604051908101604052809291908181526020018280546105759061118d565b80156105c25780601f10610597576101008083540402835291602001916105c2565b820191906000526020600020905b8154815290600101906020018083116105a557829003601f168201915b50505050508152505090508460008088815260200190815260200160002060050190816105ef919061136a565b5060026001600088815260200190815260200160002060006101000a81548160ff021916908360038111156106275761062661112f565b5b02179055506000816060015190508073ffffffffffffffffffffffffffffffffffffffff166108fc83602001519081150290604051600060405180830381858888f1935050505015801561067f573d6000803e3d6000fd5b507f692fd10a275135b9a2a2f5819db3d9965a5129ea2ad3640a0156dbce2fc81bdd87876040516106b1929190611508565b60405180910390a150505050505050565b60008060008060008060008781526020019081526020016000206040518060c001604052908160008201548152602001600182015481526020016002820160009054906101000a900473ffffffffffffffffffffffffffffffffffffffff1673ffffffffffffffffffffffffffffffffffffffff1673ffffffffffffffffffffffffffffffffffffffff1681526020016003820160009054906101000a900473ffffffffffffffffffffffffffffffffffffffff1673ffffffffffffffffffffffffffffffffffffffff1673ffffffffffffffffffffffffffffffffffffffff168152602001600482015481526020016005820180546107c19061118d565b80601f01602080910402602001604051908101604052809291908181526020018280546107ed9061118d565b801561083a5780601f1061080f5761010080835404028352916020019161083a565b820191906000526020600020905b81548152906001019060200180831161081d57829003601f168201915b505050505081525050905080600001518160200151826060015183608001519450945094509450509193509193565b806001600381111561087e5761087d61112f565b5b6001600083815260200190815260200160002060009054906101000a900460ff1660038111156108b1576108b061112f565b5b146108bb57600080fd5b81600080828152602001908152602001600020600001544210156108de57600080fd5b60008060008581526020019081526020016000206040518060c001604052908160008201548152602001600182015481526020016002820160009054906101000a900473ffffffffffffffffffffffffffffffffffffffff1673ffffffffffffffffffffffffffffffffffffffff1673ffffffffffffffffffffffffffffffffffffffff1681526020016003820160009054906101000a900473ffffffffffffffffffffffffffffffffffffffff1673ffffffffffffffffffffffffffffffffffffffff1673ffffffffffffffffffffffffffffffffffffffff168152602001600482015481526020016005820180546109d79061118d565b80601f0160208091040260200160405190810160405280929190818152602001828054610a039061118d565b8015610a505780601f10610a2557610100808354040283529160200191610a50565b820191906000526020600020905b815481529060010190602001808311610a3357829003601f168201915b505050505081525050905060036001600086815260200190815260200160002060006101000a81548160ff02191690836003811115610a9257610a9161112f565b5b02179055506000816040015190508073ffffffffffffffffffffffffffffffffffffffff166108fc83602001519081150290604051600060405180830381858888f19350505050158015610aea573d6000803e3d6000fd5b507fbddd9b693ea862fad6ecf78fd51c065be26fda94d1f3cad3a7d691453a38a73585604051610b1a9190611538565b60405180910390a15050505050565b60608160026003811115610b4057610b3f61112f565b5b6001600083815260200190815260200160002060009054906101000a900460ff166003811115610b7357610b7261112f565b5b14610b7d57600080fd5b60008060008581526020019081526020016000206040518060c001604052908160008201548152602001600182015481526020016002820160009054906101000a900473ffffffffffffffffffffffffffffffffffffffff1673ffffffffffffffffffffffffffffffffffffffff1673ffffffffffffffffffffffffffffffffffffffff1681526020016003820160009054906101000a900473ffffffffffffffffffffffffffffffffffffffff1673ffffffffffffffffffffffffffffffffffffffff1673ffffffffffffffffffffffffffffffffffffffff16815260200160048201548152602001600582018054610c769061118d565b80601f0160208091040260200160405190810160405280929190818152602001828054610ca29061118d565b8015610cef5780601f10610cc457610100808354040283529160200191610cef565b820191906000526020600020905b815481529060010190602001808311610cd257829003601f168201915b50505050508152505090508060a0015192505050919050565b6000604051905090565b600080fd5b600080fd5b6000819050919050565b610d2f81610d1c565b8114610d3a57600080fd5b50565b600081359050610d4c81610d26565b92915050565b600073ffffffffffffffffffffffffffffffffffffffff82169050919050565b6000610d7d82610d52565b9050919050565b610d8d81610d72565b8114610d9857600080fd5b50565b600081359050610daa81610d84565b92915050565b6000819050919050565b610dc381610db0565b8114610dce57600080fd5b50565b600081359050610de081610dba565b92915050565b60008060008060808587031215610e0057610dff610d12565b5b6000610e0e87828801610d3d565b9450506020610e1f87828801610d9b565b9350506040610e3087828801610d3d565b9250506060610e4187828801610dd1565b91505092959194509250565b600080fd5b600080fd5b6000601f19601f8301169050919050565b7f4e487b7100000000000000000000000000000000000000000000000000000000600052604160045260246000fd5b610ea082610e57565b810181811067ffffffffffffffff82111715610ebf57610ebe610e68565b5b80604052505050565b6000610ed2610d08565b9050610ede8282610e97565b919050565b600067ffffffffffffffff821115610efe57610efd610e68565b5b610f0782610e57565b9050602081019050919050565b82818337600083830152505050565b6000610f36610f3184610ee3565b610ec8565b905082815260208101848484011115610f5257610f51610e52565b5b610f5d848285610f14565b509392505050565b600082601f830112610f7a57610f79610e4d565b5b8135610f8a848260208601610f23565b91505092915050565b60008060408385031215610faa57610fa9610d12565b5b6000610fb885828601610d3d565b925050602083013567ffffffffffffffff811115610fd957610fd8610d17565b5b610fe585828601610f65565b9150509250929050565b60006020828403121561100557611004610d12565b5b600061101384828501610d3d565b91505092915050565b61102581610db0565b82525050565b61103481610d72565b82525050565b61104381610d1c565b82525050565b600060808201905061105e600083018761101c565b61106b602083018661101c565b611078604083018561102b565b611085606083018461103a565b95945050505050565b600081519050919050565b600082825260208201905092915050565b60005b838110156110c85780820151818401526020810190506110ad565b60008484015250505050565b60006110df8261108e565b6110e98185611099565b93506110f98185602086016110aa565b61110281610e57565b840191505092915050565b6000602082019050818103600083015261112781846110d4565b905092915050565b7f4e487b7100000000000000000000000000000000000000000000000000000000600052602160045260246000fd5b7f4e487b7100000000000000000000000000000000000000000000000000000000600052602260045260246000fd5b600060028204905060018216806111a557607f821691505b6020821081036111b8576111b761115e565b5b50919050565b60008190508160005260206000209050919050565b60006020601f8301049050919050565b600082821b905092915050565b6000600883026112207fffffffffffffffffffffffffffffffffffffffffffffffffffffffffffffffff826111e3565b61122a86836111e3565b95508019841693508086168417925050509392505050565b6000819050919050565b600061126761126261125d84610db0565b611242565b610db0565b9050919050565b6000819050919050565b6112818361124c565b61129561128d8261126e565b8484546111f0565b825550505050565b600090565b6112aa61129d565b6112b5818484611278565b505050565b5b818110156112d9576112ce6000826112a2565b6001810190506112bb565b5050565b601f82111561131e576112ef816111be565b6112f8846111d3565b81016020851015611307578190505b61131b611313856111d3565b8301826112ba565b50505b505050565b600082821c905092915050565b600061134160001984600802611323565b1980831691505092915050565b600061135a8383611330565b9150826002028217905092915050565b6113738261108e565b67ffffffffffffffff81111561138c5761138b610e68565b5b611396825461118d565b6113a18282856112dd565b600060209050601f8311600181146113d457600084156113c2578287015190505b6113cc858261134e565b865550611434565b601f1984166113e2866111be565b60005b8281101561140a578489015182556001820191506020850194506020810190506113e5565b868310156114275784890151611423601f891682611330565b8355505b6001600288020188555050505b505050505050565b6000606082019050611451600083018661103a565b61145e602083018561102b565b61146b604083018461103a565b949350505050565b600081905092915050565b60006114898261108e565b6114938185611473565b93506114a38185602086016110aa565b80840191505092915050565b60006114bb828461147e565b915081905092915050565b6000815190506114d581610d26565b92915050565b6000602082840312156114f1576114f0610d12565b5b60006114ff848285016114c6565b91505092915050565b600060408201905061151d600083018561103a565b818103602083015261152f81846110d4565b90509392505050565b600060208201905061154d600083018461103a565b9291505056fea26469706673582212203960328eee5382a4bfc2c09d778fc1e74d0d3a7896e4e0c7264dcb254713021764736f6c63430008120033",
  "immutableReferences": {},
  "source": "\npragma solidity ^0.8.18;\ncontract SwapEtherToBitcoin {\n\n  struct Swap {\n    uint256 timelock;\n    uint256 value;\n    address ethTrader;\n    address withdrawTrader;\n    bytes32 secretLock;\n    bytes secretKey;\n  }\n\n  enum States {\n    INVALID,\n    OPEN,\n    CLOSED,\n    EXPIRED\n  }\n\n  mapping (bytes32 => Swap) private swaps;\n  mapping (bytes32 => States) private swapStates;\n\n  event Open(bytes32 _swapID, address _withdrawTrader,bytes32 _secretLock);\n  event Expire(bytes32 _swapID);\n  event Close(bytes32 _swapID, bytes _secretKey);\n\n  modifier onlyInvalidSwaps(bytes32 _swapID) {\n    require (swapStates[_swapID] == States.INVALID);\n    _;\n  }\n\n  modifier onlyOpenSwaps(bytes32 _swapID) {\n    require (swapStates[_swapID] == States.OPEN);\n    _;\n  }\n\n  modifier onlyClosedSwaps(bytes32 _swapID) {\n    require (swapStates[_swapID] == States.CLOSED);\n    _;\n  }\n\n  modifier onlyExpirableSwaps(bytes32 _swapID) {\n    require (block.timestamp >= swaps[_swapID].timelock);\n    _;\n  }\n\n  modifier onlyWithSecretKey(bytes32 _swapID, bytes memory _secretKey) {\n    // TODO: Require _secretKey length to conform to the spec\n    require (swaps[_swapID].secretLock == sha256(_secretKey));\n    _;\n  }\n\n  function open(bytes32 _swapID, address _withdrawTrader, bytes32 _secretLock, uint256 _timelock) public onlyInvalidSwaps(_swapID) payable {\n    // Store the details of the swap.\n    Swap memory swap = Swap({\n      timelock: _timelock,\n      value: msg.value,\n      ethTrader: msg.sender,\n      withdrawTrader: _withdrawTrader,\n      secretLock: _secretLock,\n      secretKey: new bytes(0)\n    });\n    swaps[_swapID] = swap;\n    swapStates[_swapID] = States.OPEN;\n\n    // Trigger open event.\n    emit Open(_swapID, _withdrawTrader, _secretLock);\n  }\n\n  function close(bytes32 _swapID, bytes  memory _secretKey) public onlyOpenSwaps(_swapID) onlyWithSecretKey(_swapID, _secretKey) {\n    // Close the swap.\n    Swap memory swap = swaps[_swapID];\n    swaps[_swapID].secretKey = _secretKey;\n\n    swapStates[_swapID] = States.CLOSED;\n\n    // Transfer the ETH funds from this contract to the withdrawing trader.\n\n    address payable withdrawTraderPayable = payable(swap.withdrawTrader);\n    withdrawTraderPayable.transfer(swap.value);\n\n\n    // Trigger close event.\n    emit Close(_swapID, _secretKey);\n  }\n\n  function expire(bytes32 _swapID) public onlyOpenSwaps(_swapID) onlyExpirableSwaps(_swapID) {\n    // Expire the swap.\n    Swap memory swap = swaps[_swapID];\n    swapStates[_swapID] = States.EXPIRED;\n\n    // Transfer the ETH value from this contract back to the ETH trader.\n    address payable ethTraderPayable = payable(swap.ethTrader);\n    ethTraderPayable.transfer(swap.value);\n    \n\n     // Trigger expire event.\n    emit Expire(_swapID);\n  }\n\n  function check(bytes32 _swapID) public view returns (uint256 timelock, uint256 value, address withdrawTrader, bytes32 secretLock) {\n    Swap memory swap = swaps[_swapID];\n    return (swap.timelock, swap.value, swap.withdrawTrader, swap.secretLock);\n  }\n\n  function checkSecretKey(bytes32 _swapID) public view onlyClosedSwaps(_swapID) returns (bytes memory secretKey) {\n    Swap memory swap = swaps[_swapID];\n    return swap.secretKey;\n  }\n}\n",
  "sourcePath": "/Users/wasim/29march2/SwapTokens/AtomicSwaps/contracts/SwapEtherToBitcoin.sol",
  "compiler": {
    "name": "solc",
    "version": "0.8.18+commit.87f61d96.Emscripten.clang"
  },
  "schemaVersion": "3.4.13",
  "updatedAt": "2023-03-28T13:03:36.200Z",
  "networkType": "ethereum",
  "devdoc": {
    "kind": "dev",
    "methods": {},
    "version": 1
  },
  "userdoc": {
    "kind": "user",
    "methods": {},
    "version": 1
  }
}