{
  "contractName": "TestERC20",
  "abi": [
    {
      "anonymous": false,
      "inputs": [
        {
          "indexed": true,
          "internalType": "address",
          "name": "_owner",
          "type": "address"
        },
        {
          "indexed": true,
          "internalType": "address",
          "name": "_spender",
          "type": "address"
        },
        {
          "indexed": false,
          "internalType": "uint256",
          "name": "_value",
          "type": "uint256"
        }
      ],
      "name": "Approval",
      "type": "event"
    },
    {
      "anonymous": false,
      "inputs": [
        {
          "indexed": true,
          "internalType": "address",
          "name": "_from",
          "type": "address"
        },
        {
          "indexed": false,
          "internalType": "uint256",
          "name": "_value",
          "type": "uint256"
        }
      ],
      "name": "Burn",
      "type": "event"
    },
    {
      "anonymous": false,
      "inputs": [
        {
          "indexed": false,
          "internalType": "address",
          "name": "_from",
          "type": "address"
        },
        {
          "indexed": false,
          "internalType": "address",
          "name": "_to",
          "type": "address"
        },
        {
          "indexed": false,
          "internalType": "uint256",
          "name": "_value",
          "type": "uint256"
        }
      ],
      "name": "Transfer",
      "type": "event"
    },
    {
      "inputs": [
        {
          "internalType": "address",
          "name": "",
          "type": "address"
        },
        {
          "internalType": "address",
          "name": "",
          "type": "address"
        }
      ],
      "name": "allowed",
      "outputs": [
        {
          "internalType": "uint256",
          "name": "",
          "type": "uint256"
        }
      ],
      "stateMutability": "view",
      "type": "function",
      "constant": true
    },
    {
      "inputs": [
        {
          "internalType": "address",
          "name": "",
          "type": "address"
        }
      ],
      "name": "balances",
      "outputs": [
        {
          "internalType": "uint256",
          "name": "",
          "type": "uint256"
        }
      ],
      "stateMutability": "view",
      "type": "function",
      "constant": true
    },
    {
      "inputs": [],
      "name": "decimals",
      "outputs": [
        {
          "internalType": "uint8",
          "name": "",
          "type": "uint8"
        }
      ],
      "stateMutability": "view",
      "type": "function",
      "constant": true
    },
    {
      "inputs": [],
      "name": "name",
      "outputs": [
        {
          "internalType": "string",
          "name": "",
          "type": "string"
        }
      ],
      "stateMutability": "view",
      "type": "function",
      "constant": true
    },
    {
      "inputs": [],
      "name": "symbol",
      "outputs": [
        {
          "internalType": "string",
          "name": "",
          "type": "string"
        }
      ],
      "stateMutability": "view",
      "type": "function",
      "constant": true
    },
    {
      "inputs": [],
      "name": "totalSupply",
      "outputs": [
        {
          "internalType": "uint256",
          "name": "",
          "type": "uint256"
        }
      ],
      "stateMutability": "view",
      "type": "function",
      "constant": true
    },
    {
      "inputs": [],
      "name": "init",
      "outputs": [],
      "stateMutability": "nonpayable",
      "type": "function"
    },
    {
      "inputs": [
        {
          "internalType": "address",
          "name": "_to",
          "type": "address"
        },
        {
          "internalType": "uint256",
          "name": "_value",
          "type": "uint256"
        }
      ],
      "name": "transfer",
      "outputs": [
        {
          "internalType": "bool",
          "name": "",
          "type": "bool"
        }
      ],
      "stateMutability": "nonpayable",
      "type": "function"
    },
    {
      "inputs": [
        {
          "internalType": "address",
          "name": "_from",
          "type": "address"
        },
        {
          "internalType": "address",
          "name": "_to",
          "type": "address"
        },
        {
          "internalType": "uint256",
          "name": "_value",
          "type": "uint256"
        }
      ],
      "name": "transferFrom",
      "outputs": [
        {
          "internalType": "bool",
          "name": "",
          "type": "bool"
        }
      ],
      "stateMutability": "nonpayable",
      "type": "function"
    },
    {
      "inputs": [
        {
          "internalType": "uint256",
          "name": "_value",
          "type": "uint256"
        }
      ],
      "name": "burn",
      "outputs": [
        {
          "internalType": "bool",
          "name": "",
          "type": "bool"
        }
      ],
      "stateMutability": "nonpayable",
      "type": "function"
    },
    {
      "inputs": [
        {
          "internalType": "address",
          "name": "_from",
          "type": "address"
        },
        {
          "internalType": "uint256",
          "name": "_value",
          "type": "uint256"
        }
      ],
      "name": "burnFrom",
      "outputs": [
        {
          "internalType": "bool",
          "name": "",
          "type": "bool"
        }
      ],
      "stateMutability": "nonpayable",
      "type": "function"
    },
    {
      "inputs": [
        {
          "internalType": "address",
          "name": "_spender",
          "type": "address"
        },
        {
          "internalType": "uint256",
          "name": "_value",
          "type": "uint256"
        }
      ],
      "name": "approve",
      "outputs": [
        {
          "internalType": "bool",
          "name": "",
          "type": "bool"
        }
      ],
      "stateMutability": "nonpayable",
      "type": "function"
    },
    {
      "inputs": [
        {
          "internalType": "address",
          "name": "_owner",
          "type": "address"
        }
      ],
      "name": "balanceOf",
      "outputs": [
        {
          "internalType": "uint256",
          "name": "",
          "type": "uint256"
        }
      ],
      "stateMutability": "view",
      "type": "function",
      "constant": true
    },
    {
      "inputs": [
        {
          "internalType": "address",
          "name": "_owner",
          "type": "address"
        },
        {
          "internalType": "address",
          "name": "_spender",
          "type": "address"
        }
      ],
      "name": "allowance",
      "outputs": [
        {
          "internalType": "uint256",
          "name": "",
          "type": "uint256"
        }
      ],
      "stateMutability": "view",
      "type": "function",
      "constant": true
    }
  ],
  "bytecode": "0x608060405234801561001057600080fd5b50611594806100206000396000f3fe608060405234801561001057600080fd5b50600436106100ea5760003560e01c80635c6581651161008c57806395d89b411161006657806395d89b4114610299578063a9059cbb146102b7578063dd62ed3e146102e7578063e1c7392a14610317576100ea565b80635c6581651461020957806370a082311461023957806379cc679014610269576100ea565b806323b872dd116100c857806323b872dd1461015b57806327e235e31461018b578063313ce567146101bb57806342966c68146101d9576100ea565b806306fdde03146100ef578063095ea7b31461010d57806318160ddd1461013d575b600080fd5b6100f7610321565b6040516101049190610d35565b60405180910390f35b61012760048036038101906101229190610df0565b6103af565b6040516101349190610e4b565b60405180910390f35b6101456104a1565b6040516101529190610e75565b60405180910390f35b61017560048036038101906101709190610e90565b6104a7565b6040516101829190610e4b565b60405180910390f35b6101a560048036038101906101a09190610ee3565b6105d9565b6040516101b29190610e75565b60405180910390f35b6101c36105f1565b6040516101d09190610f2c565b60405180910390f35b6101f360048036038101906101ee9190610f47565b610604565b6040516102009190610e4b565b60405180910390f35b610223600480360381019061021e9190610f74565b610617565b6040516102309190610e75565b60405180910390f35b610253600480360381019061024e9190610ee3565b61063c565b6040516102609190610e75565b60405180910390f35b610283600480360381019061027e9190610df0565b610685565b6040516102909190610e4b565b60405180910390f35b6102a16107b5565b6040516102ae9190610d35565b60405180910390f35b6102d160048036038101906102cc9190610df0565b610843565b6040516102de9190610e4b565b60405180910390f35b61030160048036038101906102fc9190610f74565b610858565b60405161030e9190610e75565b60405180910390f35b61031f6108df565b005b6000805461032e90610fe3565b80601f016020809104026020016040519081016040528092919081815260200182805461035a90610fe3565b80156103a75780601f1061037c576101008083540402835291602001916103a7565b820191906000526020600020905b81548152906001019060200180831161038a57829003601f168201915b505050505081565b600081600560003373ffffffffffffffffffffffffffffffffffffffff1673ffffffffffffffffffffffffffffffffffffffff16815260200190815260200160002060008573ffffffffffffffffffffffffffffffffffffffff1673ffffffffffffffffffffffffffffffffffffffff168152602001908152602001600020819055508273ffffffffffffffffffffffffffffffffffffffff163373ffffffffffffffffffffffffffffffffffffffff167f8c5be1e5ebec7d5bd14f71427d1e84f3dd0314c0f7b2291e5b200ac8c7c3b9258460405161048f9190610e75565b60405180910390a36001905092915050565b60035481565b6000600560008573ffffffffffffffffffffffffffffffffffffffff1673ffffffffffffffffffffffffffffffffffffffff16815260200190815260200160002060003373ffffffffffffffffffffffffffffffffffffffff1673ffffffffffffffffffffffffffffffffffffffff1681526020019081526020016000205482111561053257600080fd5b81600560008673ffffffffffffffffffffffffffffffffffffffff1673ffffffffffffffffffffffffffffffffffffffff16815260200190815260200160002060003373ffffffffffffffffffffffffffffffffffffffff1673ffffffffffffffffffffffffffffffffffffffff16815260200190815260200160002060008282546105be9190611043565b925050819055506105d0848484610a00565b90509392505050565b60046020528060005260406000206000915090505481565b600260009054906101000a900460ff1681565b60006106103383610b84565b9050919050565b6005602052816000526040600020602052806000526040600020600091509150505481565b6000600460008373ffffffffffffffffffffffffffffffffffffffff1673ffffffffffffffffffffffffffffffffffffffff168152602001908152602001600020549050919050565b6000600560008473ffffffffffffffffffffffffffffffffffffffff1673ffffffffffffffffffffffffffffffffffffffff16815260200190815260200160002060003373ffffffffffffffffffffffffffffffffffffffff1673ffffffffffffffffffffffffffffffffffffffff1681526020019081526020016000205482111561071057600080fd5b81600560008573ffffffffffffffffffffffffffffffffffffffff1673ffffffffffffffffffffffffffffffffffffffff16815260200190815260200160002060003373ffffffffffffffffffffffffffffffffffffffff1673ffffffffffffffffffffffffffffffffffffffff168152602001908152602001600020600082825461079c9190611043565b925050819055506107ad8383610b84565b905092915050565b600180546107c290610fe3565b80601f01602080910402602001604051908101604052809291908181526020018280546107ee90610fe3565b801561083b5780601f106108105761010080835404028352916020019161083b565b820191906000526020600020905b81548152906001019060200180831161081e57829003601f168201915b505050505081565b6000610850338484610a00565b905092915050565b6000600560008473ffffffffffffffffffffffffffffffffffffffff1673ffffffffffffffffffffffffffffffffffffffff16815260200190815260200160002060008373ffffffffffffffffffffffffffffffffffffffff1673ffffffffffffffffffffffffffffffffffffffff16815260200190815260200160002054905092915050565b6040518060400160405280600c81526020017f54657261426c6f636b4f6e650000000000000000000000000000000000000000815250600090816109239190611252565b506040518060400160405280600581526020017f54424f6e65000000000000000000000000000000000000000000000000000000815250600190816109689190611252565b506012600260006101000a81548160ff021916908360ff160217905550600260009054906101000a900460ff1660ff16600a6109a49190611457565b620186a06109b291906114a2565b600381905550600354600460003373ffffffffffffffffffffffffffffffffffffffff1673ffffffffffffffffffffffffffffffffffffffff16815260200190815260200160002081905550565b60008073ffffffffffffffffffffffffffffffffffffffff168373ffffffffffffffffffffffffffffffffffffffff1614158015610a7d575081600460008673ffffffffffffffffffffffffffffffffffffffff1673ffffffffffffffffffffffffffffffffffffffff1681526020019081526020016000205410155b8015610a895750600082115b610a9257600080fd5b81600460008673ffffffffffffffffffffffffffffffffffffffff1673ffffffffffffffffffffffffffffffffffffffff1681526020019081526020016000206000828254610ae19190611043565b9250508190555081600460008573ffffffffffffffffffffffffffffffffffffffff1673ffffffffffffffffffffffffffffffffffffffff1681526020019081526020016000206000828254610b3791906114e4565b925050819055507fddf252ad1be2c89b69c2b068fc378daa952ba7f163c4a11628f55a4df523b3ef848484604051610b7193929190611527565b60405180910390a1600190509392505050565b600081600460008573ffffffffffffffffffffffffffffffffffffffff1673ffffffffffffffffffffffffffffffffffffffff1681526020019081526020016000205410158015610bd55750600082115b610bde57600080fd5b81600460008573ffffffffffffffffffffffffffffffffffffffff1673ffffffffffffffffffffffffffffffffffffffff1681526020019081526020016000206000828254610c2d9190611043565b925050819055508160036000828254610c469190611043565b925050819055508273ffffffffffffffffffffffffffffffffffffffff167fcc16f5dbb4873280815c1ee09dbd06736cffcc184412cf7a71a0fdb75d397ca583604051610c939190610e75565b60405180910390a26001905092915050565b600081519050919050565b600082825260208201905092915050565b60005b83811015610cdf578082015181840152602081019050610cc4565b60008484015250505050565b6000601f19601f8301169050919050565b6000610d0782610ca5565b610d118185610cb0565b9350610d21818560208601610cc1565b610d2a81610ceb565b840191505092915050565b60006020820190508181036000830152610d4f8184610cfc565b905092915050565b600080fd5b600073ffffffffffffffffffffffffffffffffffffffff82169050919050565b6000610d8782610d5c565b9050919050565b610d9781610d7c565b8114610da257600080fd5b50565b600081359050610db481610d8e565b92915050565b6000819050919050565b610dcd81610dba565b8114610dd857600080fd5b50565b600081359050610dea81610dc4565b92915050565b60008060408385031215610e0757610e06610d57565b5b6000610e1585828601610da5565b9250506020610e2685828601610ddb565b9150509250929050565b60008115159050919050565b610e4581610e30565b82525050565b6000602082019050610e606000830184610e3c565b92915050565b610e6f81610dba565b82525050565b6000602082019050610e8a6000830184610e66565b92915050565b600080600060608486031215610ea957610ea8610d57565b5b6000610eb786828701610da5565b9350506020610ec886828701610da5565b9250506040610ed986828701610ddb565b9150509250925092565b600060208284031215610ef957610ef8610d57565b5b6000610f0784828501610da5565b91505092915050565b600060ff82169050919050565b610f2681610f10565b82525050565b6000602082019050610f416000830184610f1d565b92915050565b600060208284031215610f5d57610f5c610d57565b5b6000610f6b84828501610ddb565b91505092915050565b60008060408385031215610f8b57610f8a610d57565b5b6000610f9985828601610da5565b9250506020610faa85828601610da5565b9150509250929050565b7f4e487b7100000000000000000000000000000000000000000000000000000000600052602260045260246000fd5b60006002820490506001821680610ffb57607f821691505b60208210810361100e5761100d610fb4565b5b50919050565b7f4e487b7100000000000000000000000000000000000000000000000000000000600052601160045260246000fd5b600061104e82610dba565b915061105983610dba565b925082820390508181111561107157611070611014565b5b92915050565b7f4e487b7100000000000000000000000000000000000000000000000000000000600052604160045260246000fd5b60008190508160005260206000209050919050565b60006020601f8301049050919050565b600082821b905092915050565b6000600883026111087fffffffffffffffffffffffffffffffffffffffffffffffffffffffffffffffff826110cb565b61111286836110cb565b95508019841693508086168417925050509392505050565b6000819050919050565b600061114f61114a61114584610dba565b61112a565b610dba565b9050919050565b6000819050919050565b61116983611134565b61117d61117582611156565b8484546110d8565b825550505050565b600090565b611192611185565b61119d818484611160565b505050565b5b818110156111c1576111b660008261118a565b6001810190506111a3565b5050565b601f821115611206576111d7816110a6565b6111e0846110bb565b810160208510156111ef578190505b6112036111fb856110bb565b8301826111a2565b50505b505050565b600082821c905092915050565b60006112296000198460080261120b565b1980831691505092915050565b60006112428383611218565b9150826002028217905092915050565b61125b82610ca5565b67ffffffffffffffff81111561127457611273611077565b5b61127e8254610fe3565b6112898282856111c5565b600060209050601f8311600181146112bc57600084156112aa578287015190505b6112b48582611236565b86555061131c565b601f1984166112ca866110a6565b60005b828110156112f2578489015182556001820191506020850194506020810190506112cd565b8683101561130f578489015161130b601f891682611218565b8355505b6001600288020188555050505b505050505050565b60008160011c9050919050565b6000808291508390505b600185111561137b5780860481111561135757611356611014565b5b60018516156113665780820291505b808102905061137485611324565b945061133b565b94509492505050565b6000826113945760019050611450565b816113a25760009050611450565b81600181146113b857600281146113c2576113f1565b6001915050611450565b60ff8411156113d4576113d3611014565b5b8360020a9150848211156113eb576113ea611014565b5b50611450565b5060208310610133831016604e8410600b84101617156114265782820a90508381111561142157611420611014565b5b611450565b6114338484846001611331565b9250905081840481111561144a57611449611014565b5b81810290505b9392505050565b600061146282610dba565b915061146d83610dba565b925061149a7fffffffffffffffffffffffffffffffffffffffffffffffffffffffffffffffff8484611384565b905092915050565b60006114ad82610dba565b91506114b883610dba565b92508282026114c681610dba565b915082820484148315176114dd576114dc611014565b5b5092915050565b60006114ef82610dba565b91506114fa83610dba565b925082820190508082111561151257611511611014565b5b92915050565b61152181610d7c565b82525050565b600060608201905061153c6000830186611518565b6115496020830185611518565b6115566040830184610e66565b94935050505056fea26469706673582212207566f4c643f8c524331e9c3732ac0fe436ec378cbda1baf69da43c22ef236d9564736f6c63430008120033",
  "immutableReferences": {},
  "source": "pragma solidity ^0.8.18; \n\nabstract contract TokenInterface {\n\tfunction _transfer(address _from, address _to, uint256 _value) internal virtual returns (bool);\n\tfunction transfer(address _to, uint256 _value) public virtual returns (bool);\n\tfunction transferFrom(address _from, address _to, uint256 _value) public virtual returns (bool);\n\tfunction _burn(address _from, uint256 _value) internal virtual returns (bool);\n\tfunction burn(uint256 _value) public virtual returns (bool);\n\tfunction burnFrom(address _from, uint256 _value) public virtual returns (bool);\n\tfunction approve(address _spender, uint256 _value) public virtual returns (bool);\n\tfunction balanceOf(address _owner) public virtual view returns (uint256);\n\tfunction allowance(address _owner, address _spender) public virtual view returns (uint256);\n\n\tevent Transfer(address _from, address _to, uint256 _value);\n\tevent Burn(address indexed _from, uint256 _value);\n\tevent Approval(address indexed _owner, address indexed _spender, uint256 _value);\n}\n\ncontract TestERC20 is TokenInterface {\n\tstring public name ;//= \"TeraBlockOne\";\n\tstring public symbol ;//= \"TBOne\";\n\tuint8 public decimals;// = 18;\n  uint256 public totalSupply ;//= 100000 * 10 ** uint256(decimals);\n\n\tmapping (address => uint256) public balances;\n\tmapping (address => mapping (address => uint256)) public allowed;\n\n\tfunction init() public {\n\t\tname = \"TeraBlockOne\";\n\t\tsymbol = \"TBOne\";\n\t\tdecimals = 18;\n\t\ttotalSupply = 100000 * 10 ** uint256(decimals);\n\t\tbalances[msg.sender] = totalSupply;\n  \t}\n\n\t// Transfer amount from one account to another (may require approval)\n\tfunction _transfer(address _from, address _to, uint256 _value) internal override returns (bool) {\n\t\trequire(_to != address(0) && balances[_from] >= _value && _value > 0);\n\t\tbalances[_from] -= _value;\n\t\tbalances[_to] += _value;\n\t\temit Transfer(_from, _to, _value);\n\t\treturn true;\n\t}\n\n\tfunction transfer(address _to, uint256 _value) public override returns (bool) {\n\t\treturn _transfer(msg.sender, _to, _value);\n\t}\n\n\tfunction transferFrom(address _from, address _to, uint256 _value) public override returns (bool) {\n\t\trequire(_value <= allowed[_from][msg.sender]);\n    \tallowed[_from][msg.sender] -= _value;\n\t\treturn _transfer(_from, _to, _value);\n\t}\n\n\t// Burn amount from account (may require approval)\n\tfunction _burn(address _from, uint256 _value) internal override returns (bool) {\n\t\trequire(balances[_from] >= _value && _value > 0);\n\t\tbalances[_from] -= _value;\n\t\ttotalSupply -= _value;\n\t\temit Burn(_from, _value);\n\t\treturn true;\n\t}\n\n\tfunction burn(uint256 _value) public override returns (bool) {\n\t\treturn _burn(msg.sender, _value);\n\t}\n\n\tfunction burnFrom(address _from, uint256 _value) public override returns (bool) {\n\t\trequire(_value <= allowed[_from][msg.sender]);\n\t\tallowed[_from][msg.sender] -= _value;\n\t\treturn _burn(_from, _value);\n\t}\n\n\t// Approve spender from owner's account\n\tfunction approve(address _spender, uint256 _value) public override returns (bool) {\n\t\tallowed[msg.sender][_spender] = _value;\n\t\temit Approval(msg.sender, _spender, _value);\n\t\treturn true;\n\t}\n\n\t// Return balance\n\tfunction balanceOf(address _owner) public override view returns (uint256) {\n\t\treturn balances[_owner];\n\t}\n\n\t// Return allowance\n\tfunction allowance(address _owner, address _spender) public override view returns (uint256) {\n\t\treturn allowed[_owner][_spender];\n\t}\n}",
  "sourcePath": "/Users/wasim/29march2/SwapTokens/AtomicSwaps/contracts/TestERC20.sol",
  "compiler": {
    "name": "solc",
    "version": "0.8.18+commit.87f61d96.Emscripten.clang"
  },
  "schemaVersion": "3.4.13",
  "updatedAt": "2023-03-28T13:03:37.072Z",
  "networkType": "ethereum",
  "devdoc": {
    "kind": "dev",
    "methods": {},
    "version": 1
  },
  "userdoc": {
    "kind": "user",
    "methods": {},
    "version": 1
  }
}